:100000009AEF00F0050EEA6EE30EE96EEF500EE097
:10001000050E016E006A002EFED7012EFBD72E0EB4
:10002000006E002EFED700D0EF2EF2D7BBEF00F00F
:10003000949C8B9C080E016E00D00000018E10D0A5
:10004000019E0501EE330001D8B08B8CD8A08B9CAB
:10005000018C06D0019C012EF4D700D000008B8CBF
:10006000840EE96EE92EFED700D0000001BEE8D76D
:1000700001BCF0D71200EACFEDF5E9CFECF50501B0
:10008000E639F009E86FE827E20FE96F320FEB6F0E
:10009000E6510F0BE927E927EB27E90FEA6FEA277B
:1000A000EA27E5390F0BEA27EB27EA37EB37EB1F97
:1000B000EB37E5510F0BEB27E837070EE76F0A0E1A
:1000C000EA07EB27FDE3E907EA27FDE3E807E9276D
:1000D000FDE3E707E827FDE3050EEA6EE70EE96EAC
:1000E000070EEC15EC9DE926EB0EE95CD8B4EC8D1F
:1000F000EF50006E08E1ECBD06D0ECB915D0ECB7BE
:1001000002D0200E03D0EC87EC99300E0026EACF07
:10011000E6F5E9CFE5F500C0EEF5000189DFE6C5BB
:10012000EAFFE5C5E9FF0501EE50ECADDDD70001C2
:100130000AEF01F0F86AD09EEA6AE96A949C8B8C17
:10014000C180C182C184C196C19CC28CC28EC18E45
:10015000C280C190C182C184C186000E016EC250AE
:10016000C70B0110C26E938081B06AD0640E050186
:10017000E36F000147D7938081B05FD004B05DD0BA
:1001800004800501E26BE16BE251020822E303E126
:10019000E151ED081EE3E2C503F0E151E12BD8B4D3
:1001A000E22BE36F03C0E4F5D890E335026E03342D
:1001B000036E0250050FE96E000E0320EA6EC28442
:1001C000C2B4FED7C3CFEFFFC4CFECFFC2B4FED79B
:1001D000DBD7E26BE16BE25102082BE303E1E15173
:1001E000ED0827E3D890E135026EE235036E025048
:1001F000050FE96E000E0320EA6EECCFE4F5ED5238
:10020000EFCFE3F5100EE96EE4C5E6F5E3C5E5F5DD
:10021000000131D70A0E0501EE6F000109DF0D0E56
:100220000501EE6F000104DF0501E12BD8B4E22BDC
:10023000D2D7E26BE16B05D0000104A001D004909D
:0C0240000501000190D7000E016E0300C4
:020000040030CA
:0E00000000220E0E000181000FC00FE00F4025
:00000001FF
;PIC18F452
;CRC=D23B  CREATED="12-set-14 09:34"
