:10000000B5EF02F0414E303A2025660A0D00414E10
:10001000333A2025660A0D00EA6A110EE96EEF50A8
:100020000EE0050E016E006A002EFED7012EFBD7F2
:100030002E0E006E002EFED700D0EF2EF2D712004B
:100040008E0E006E12C001F011C002F0036A015260
:1000500009E102C001F0026A080E005E015202E1ED
:10006000006A08D0D89001BE04D0023601360006DE
:10007000F9D7019E12001550D8B4A5D0216E1950A1
:10008000D8B4A1D0215E05E37F0E2126D8B09BD045
:1000900006D0810E215ED8A096D0D8B494D021C0CD
:1000A00000F0016A026A036A206A16C01FF01F8E00
:1000B00017C01EF018C01DF0190E216E1C501D5ED9
:1000C0000DE2010E1E5E0AE21F5E08E2205E06E2FD
:1000D000202A1F2A1E2A1C501D2628D01B501E5EB7
:1000E00012E2010E1F5E0FE2205E0DE2202A1F2A9F
:1000F0001B501E261C501D2619E31E2A17E11F2A1D
:1001000015E1202A13D01A5080091F5E0EE2010E5D
:10011000205E0BE2202A1A5080091F261B501E2643
:10012000E9E31F2AE7E1202AE5D70380212E01D049
:100130000BD0D8901D361E361F362036D890033689
:10014000023601362236BAD722A006D0D890013224
:1001500002320332223202D0000635E022BE1ED027
:10016000D8901D361E361F3620361C501D5E07E205
:10017000010E1E5E04E21F5E02E2205E1AE31B50C7
:100180001E5E05E2010E1F5E02E2205E12E31A50BF
:1001900080091F5E03E2010E205E0BE3032A09E1E2
:1001A000022A07E1012A05E1002A0DE001320232AC
:1001B000033216C021F01A50211A21AE02D0018E4E
:1001C00006D0019E04D0006A016A026A036A120026
:1001D000949C8B9C080E016E00D00000018E0ED006
:1001E000019E2232D8B08B8CD8A08B9C018C06D07B
:1001F000019C012EF6D700D000008B8C840EE96E96
:10020000E92EFED700D0000001BEEAD701BCF0D72E
:1002100012000900F6CF16F0F7CF17F0F5CF22F055
:10022000D7DF16C0F6FF17C0F7FF152EF2D7120062
:100230002250D8B471D0006E2650D8B46DD00026AC
:1002400004E3810E002668E204D07F0E005E64E3C2
:1002500063E023C02AF027502A1A238E278E2550C8
:100260002902F4CF2CF024502802F4CF03F0F3CF6E
:100270002BF02902F3502C26F4502B22000E0322DF
:1002800025502802F3502C26F4502B22000E026A2F
:100290000322022223502902F3502B26F45003227A
:1002A000000E022223502802F3500326F4500222AB
:1002B000000E016A012225502702F3502B26F4502C
:1002C0000322000E0222012224502702F3500326AB
:1002D000F4500222000E012223502702F35002267E
:1002E000F4500122002A01BE05D02B360336023617
:1002F00001360006000E2BAE0AD0032A022201228C
:10030000015005E1025003E1035001E1002A2ABE39
:10031000018E2AAE019E04D0006A016A026A036A55
:100320000DEF02F02250B608226E036A23C026F0B9
:10033000238ED89023322432253203320232013206
:100340000032222EF6D726AE0BD0001E011E021E52
:10035000031E002AD8B4012AD8B4022AD8B4032A2A
:1003600020EF02F0D8B203D0EA6A2A0EE96E006AE2
:10037000016A026A036A2A6A2B6A2C6A2D6A29506A
:100380002810271026102CE0200E2E6ED890223632
:100390002336243625362A362B362C362D36295050
:1003A0002D5C08E128502C5C05E127502B5C02E114
:1003B00026502A5C0FE326502A5E2750D8A0273CFF
:1003C0002B5E2850D8A0283C2C5E2950D8A0293C70
:1003D0002D5ED88000360136023603362E2ED6D753
:1003E0002AC0EFFF2BC0ECFF2CC0ECFF2DC0ECFFB0
:1003F0001200E9501A6E19501C6E19E018C025F051
:1004000017C024F016C023F015C022F0296A286A0C
:10041000200E276E820E266E0BD703C018F002C086
:1004200017F001C016F000C015F01C2EE7D718C059
:1004300025F017C024F016C023F015C022F072D7A3
:1004400003C018F002C017F001C016F000C015F08C
:1004500018AE0DD01A061A8A151E161E171E181E63
:10046000152AD8B4162AD8B4172AD8B4182A3B0E9D
:10047000216E9A0E206ECA0E1F6E1E6A0A0E1C6E28
:100480001950D8B41A2AD882EA6A150EE96E18C033
:1004900025F017C024F016C023F015C022F021C0AB
:1004A00029F020C028F01FC027F01EC026F05ADF18
:1004B000015000520FE119281C5C0CE01A500CE0AE
:1004C0000F0B1C5C01E037E21ABE35D01ABC04D019
:1004D000200E2DD0200E1A161AAA0CD01A9A1950D6
:1004E000D8A41A0600501A6E2D0E226E71DE1A5014
:1004F000006E1A6A19501C5C0AE100501A6E2E0E2A
:10050000226E66DE1A50006E200E1A16000E300E95
:100510001AAA0DD01A9A1950D8A41A0600501A6EA9
:100520002D0E226E55DE1A50006E1A6A300E00260D
:1005300000C022F04DDED89221C025F020C024F06A
:100540001FC023F01EC022F0296A286A276A0A0EFB
:10055000266E08DF03C021F002C020F001C01FF0AA
:1005600000C01EF01C2E8FD71200F86AD09EEA6AD7
:10057000E96A949C8B8C020E0C6EC180C182C1848E
:10058000C196C19CC28CC28EC18EC280C190C192E4
:10059000C184C196000E016EC250C70B0110C26E1D
:1005A0000CC011F039DDC284C2B4FED7C3CF08F04D
:1005B000C4CF09F00A50085C03E10B50095C44E029
:1005C00009C00BF008C00AF009C012F008C011F011
:1005D00037DD00C011F001C012F002C013F003C0FB
:1005E00014F003C018F002C017F001C016F000C0EC
:1005F00015F00A0E1C6ED70E1B6E230E1A6E820E9D
:10060000196E39DD00C011F001C012F002C013F004
:1006100003C014F0040EF66E000EF76E050E156E94
:10062000F8DD890EE96E14C018F013C017F012C07F
:1006300016F011C015F0020E196EDBDE0A0E226EE6
:10064000C7DD0D0E226EC4DD180E016EC250C70B41
:100650000110C26E0CC011F0DFDCC284C2B4FED740
:10066000C3CF04F0C4CF05F00650045C03E107508B
:10067000055C44E005C007F004C006F005C012F0B8
:1006800004C011F0DDDC00C011F001C012F002C0A6
:1006900013F003C014F003C018F002C017F001C03B
:1006A00016F000C015F00A0E1C6ED70E1B6E230E3E
:1006B0001A6E820E196EDFDC00C011F001C012F05C
:1006C00002C013F003C014F00E0EF66E000EF76EAB
:1006D000050E156E9EDD890EE96E14C018F013C06C
:1006E00017F012C016F011C015F0020E196E81DE5F
:1006F0000A0E226E6DDD0D0E226E6ADD4BD7000EE6
:04070000016E030083
:020000040030CA
:0E00000000220E0E000181000FC00FE00F4025
:00000001FF
;PIC18F452
;CRC=2AE2  CREATED="10-set-14 09:03"
