:040000001BEF01F001
:08000800046ED8CF05F0E0CF33
:1000100006F00001E9CF0CF0EACF07F0E1CF08F0DD
:10002000E2CF09F0D9CF0AF0DACF0BF0F3CF12F01C
:10003000F4CF13F0FACF14F0F5CF15F0F6CF16F099
:10004000F7CF17F000C00EF001C00FF002C010F0A3
:1000500003C011F0F2AA30EF00F0F2B457EF00F055
:100060000EC000F00FC001F010C002F011C003F08C
:100070000CC0E9FF07C0EAFF078E08C0E1FF09C016
:10008000E2FF0AC0D9FF0BC0DAFF12C0F3FF13C0B2
:10009000F4FF14C0FAFF15C0F5FF16C0F6FF17C035
:1000A000F7FF045006C0E0FF05C0D8FF1000F2942F
:1000B000D76AD66A0401CBC403F0CA51CA2BD8B49C
:1000C000CB2BD86F03C0D9F4D890D835026E033447
:1000D000036E02501A0FE96E000E0320EA6EC2840E
:1000E000C2B4FED7C3CFEFFFC4CFECFFCB510108A2
:1000F00006E2FF0A03E1CA51570801E2F29AF294BC
:10010000000130EF00F0040EEA6ECC0EE96EEF5005
:100110000EE0050E016E006A002EFED7012EFBD701
:100120002E0E006E002EFED700D0EF2EF2D742EF3B
:1001300001F0949C8B9C080E016E00D00000018E93
:1001400010D0019E0401D7330001D8B08B8CD8A009
:100150008B9C018C06D0019C012EF4D700D00000AE
:100160008B8C840EE96EE92EFED700D0000001BE14
:10017000E8D701BCF0D71200EACFD6F4E9CFD5F426
:100180000401CF39F009D16FD127E20FD26F320FBE
:10019000D46FCF510F0BD227D227D427E90FD36FBB
:1001A000D327D327CE390F0BD327D427D337D43730
:1001B000D41FD437CE510F0BD427D137070ED06FB1
:1001C0000A0ED307D427FDE3D207D327FDE3D107D7
:1001D000D227FDE3D007D127FDE3040EEA6ED00E4F
:1001E000E96E070ED515D59DE926D40EE95CD8B485
:1001F000D58DEF50006E08E1D5BD06D0D5B915D02C
:10020000D5B702D0200E03D0D587D599300E002661
:10021000EACFCFF4E9CFCEF400C0D7F4000189DFF4
:10022000CFC4EAFFCEC4E9FF0401EE50D5ADDDD75F
:10023000000175EF01F0F86AD09E078EEA6AE96A5C
:10024000949C8B8CC180C182C184C196C19CC28C9C
:10025000C28EC18EC280C190C182C184C186000E8F
:10026000016EC250C70B0110C26ED76AD66AC00EAB
:10027000D56EF294938081B00ED0640E0401CC6FE1
:10028000000141D7938081B006D019B004D0198005
:10029000F28AC00EF2120401CB51010838E2FF0AC3
:1002A00003E1CA51570833E2CB6BCA6BCB5102084A
:1002B0002BE303E1CA51570827E3D890CA35026EF1
:1002C000CB35036E02501A0FE96E000E0320EA6E62
:1002D000ECCFCDF4ED52EFCFCCF4100EE96ECDC4DF
:1002E000CFF4CCC4CEF4000147D70A0E0401D76F77
:1002F00000011FDF0D0E0401D76F00011ADF04019A
:10030000CA2BD8B4CB2BD2D7000E016E05D000017A
:0A031000B1D7000E016E04010300D6
:020000040030CA
:0E00000000220E0E000181000FC00FE00F4025
:00000001FF
;PIC18F452
;CRC=1E06  CREATED="10-set-14 16:36"
