:1000000002EF03F00F50016A0E5C03E20EC000F035
:100010000CD0006A080E106E0E3600360F50005CD1
:10002000D8B0006E0136102EF7D712008E0E006E7B
:100030000DC001F00CC002F0036A015209E102C0D8
:1000400001F0026A080E005E015202E1006A08D067
:10005000D89001BE04D0023601360006F9D7019EC1
:1000600012001050D8B4A5D01C6E1450D8B4A1D032
:100070001C5E05E37F0E1C26D8B09BD006D0810EF7
:100080001C5ED8A096D0D8B494D01CC000F0016AF1
:10009000026A036A1B6A11C01AF01A8E12C019F0A4
:1000A00013C018F0190E1C6E1750185E0DE2010EE9
:1000B000195E0AE21A5E08E21B5E06E21B2A1A2A91
:1000C000192A1750182628D01650195E12E2010E70
:1000D0001A5E0FE21B5E0DE21B2A1A2A1650192621
:1000E0001750182619E3192A17E11A2A15E11B2AB5
:1000F00013D0155080091A5E0EE2010E1B5E0BE252
:100100001B2A155080091A2616501926E9E31A2AC7
:10011000E7E11B2AE5D703801C2E01D00BD0D89035
:10012000183619361A361B36D89003360236013681
:100130001D36BAD71DA006D0D89001320232033244
:100140001D3202D0000635E01DBE1ED0D8901836F4
:1001500019361A361B361750185E07E2010E195E63
:1001600004E21A5E02E21B5E1AE31650195E05E213
:10017000010E1A5E02E21B5E12E3155080091A5E40
:1001800003E2010E1B5E0BE3032A09E1022A07E1E9
:10019000012A05E1002A0DE001320232033211C0CA
:1001A0001CF015501C1A1CAE02D0018E06D0019E08
:1001B00004D0006A016A026A036A12008E0E006EA1
:1001C0000C50005E0DC002F00EC001F0028E005215
:1001D00009E0D890025202E1015204E002320132F9
:1001E000002EF7D70DAE05D0011E021E012AD8B48D
:1001F000022A53EF03F0949C8B9C080E016E00D0F2
:100200000000018E0ED0019E1D32D8B08B8CD8A07C
:100210008B9C018C06D0019C012EF6D700D00000EB
:100220008B8C840EE96EE92EFED700D0000001BE53
:10023000EAD701BCF0D7120001500CC00EF0640EDA
:100240000F6EE0DE00C00CF00150300E07E10DA291
:100250000CD00DB60AD00DB8200E03D00D960D9817
:100260000D80012601C01DF0C6DF0CC00EF00A0E85
:100270000F6EC8DE00C00CF00150300E06E10DB666
:1002800008D00DA006D00DB8200E012601C01DF02B
:10029000B2DF300E0C260CC01DF0ADDF67EF03F0AF
:1002A0001D50D8B471D0006E2150D8B46DD0002646
:1002B00004E3810E002668E204D07F0E005E64E352
:1002C00063E01EC025F02250251A1E8E228E20507B
:1002D0002402F4CF27F01F502302F4CF03F0F3CF12
:1002E00026F02402F3502726F4502622000E032283
:1002F00020502302F3502726F4502622000E026AD3
:10030000032202221E502402F3502626F450032218
:10031000000E02221E502302F3500326F450022244
:10032000000E016A012220502202F3502626F450CA
:100330000322000E022201221F502202F350032644
:10034000F4500222000E01221E502202F350022617
:10035000F4500122002A01BE05D0263603360236AB
:1003600001360006000E26AE0AD0032A0222012220
:10037000015005E1025003E1035001E1002A25BECE
:10038000018E25AE019E04D0006A016A026A036AEA
:1003900012001D50B6081D6E036A1EC021F01E8E8D
:1003A000D8901E321F322032033202320132003224
:1003B0001D2EF6D721AE0BD0001E011E021E031EFD
:1003C000002AD8B4012AD8B4022AD8B4032A57EF95
:1003D00002F0D8B203D0EA6A250EE96E006A016A1B
:1003E000026A036A256A266A276A286A245023104B
:1003F000221021102CE0200E296ED8901D361E36BA
:100400001F36203625362636273628362450285CD7
:1004100008E12350275C05E12250265C02E12150CF
:10042000255C0FE32150255E2250D8A0223C265E99
:100430002350D8A0233C275E2450D8A0243C285E1B
:10044000D8800036013602360336292ED6D725C08D
:10045000EFFF26C0ECFF27C0ECFF28C0ECFF120026
:10046000E950156E1450176E19E013C020F012C039
:100470001FF011C01EF010C01DF0246A236A200E68
:10048000226E820E216E0CDF03C013F002C012F048
:1004900001C011F000C010F0172EE7D713C020F0F4
:1004A00012C01FF011C01EF010C01DF072D703C0A3
:1004B00013F002C012F001C011F000C010F013AE32
:1004C0000DD01506158A101E111E121E131E102A9D
:1004D000D8B4112AD8B4122AD8B4132A3B0E1C6EF1
:1004E0009A0E1B6ECA0E1A6E196A0A0E176E1450F7
:1004F000D8B4152AD882EA6A100EE96E13C020F02B
:1005000012C01FF011C01EF010C01DF01CC024F05E
:100510001BC023F01AC022F019C021F05ADF01508D
:1005200000520FE11428175C0CE015500CE00F0B83
:10053000175C01E037E215BE35D015BC04D0200EA3
:100540002DD0200E151615AA0CD0159A1450D8A42B
:1005500015060050156E2D0E1D6E4DDE1550006EE9
:10056000156A1450175C0AE10050156E2E0E1D6EB0
:1005700042DE1550006E200E1516000E300E15AA24
:100580000DD0159A1450D8A415060050156E2D0ED6
:100590001D6E31DE1550006E156A300E002600C04B
:1005A0001DF029DED8921CC020F01BC01FF01AC01D
:1005B0001EF019C01DF0246A236A226A0A0E216EF9
:1005C00008DF03C01CF002C01BF001C01AF000C01D
:1005D00019F0172E8FD7B4EF03F0EA6A0C0EE96E0C
:1005E000EF500EE0050E016E006A002EFED7012EC0
:1005F000FBD72E0E006E002EFED700D0EF2EF2D7C6
:10060000BDEF03F0F86AD09EEA6AE96A949C8B8C8D
:10061000640E076EC180C182C184C196C19CC28C28
:10062000C28EC18EC280C190C192C184C196000E9B
:10063000016EC250C70B0110C26EC284C2B4FED795
:10064000C3CF05F00650055C30E005C006F005504C
:100650003B0DF350FF0F0D6E0E6E0F68D3DC015093
:100660000D6A0C6EE3DC03C00BF002C00AF001C09F
:1006700009F000C008F0136A126A680E116E860E47
:10068000106E0BC017F00AC016F009C015F008C0B4
:1006900014F0E7DC03C00FF002C00EF001C00DF053
:1006A00000C00CF08BD501C007F0C2B4FED7080E15
:1006B000016EC250C70B0110C26EC284C2B4FED715
:1006C000C3CF04F004C00CF01B0E0D6EB5D50A0E9E
:1006D0001D6E91DD0D0E1D6E8EDD0D6A04C00CF0D9
:1006E000A5DC00C00CF001C00DF002C00EF003C08C
:1006F0000FF003C013F002C012F001C011F000C0EF
:1007000010F0176A166A7F0E156E860E146EA9DC3D
:1007100000C00CF001C00DF002C00EF003C00FF0DD
:1007200003C020F002C01FF001C01EF000C01DF089
:10073000246A236A200E226E810E216EB1DD00C074
:100740000CF001C00DF002C00EF003C00FF0890ED6
:10075000E96E03C013F002C012F001C011F000C036
:1007600010F0020E146E7CD60A0E1D6E44DD0D0EC6
:100770001D6E41DD07C00CF030D759D7000E016E59
:02078000030074
:020000040030CA
:0E00000000220E0E000181000FC00FE00F4025
:00000001FF
;PIC18F452
;CRC=B54C  CREATED="09-set-14 11:28"
