:1000000068EF04F04C61743A2025756D73204672D8
:1000100065713A202566487A0A0D000054656E73B2
:10002000616F3A2025660A0D0000EA6A110EE96E3A
:10003000EF500EE0050E016E006A002EFED7012E75
:10004000FBD72E0E006E002EFED700D0EF2EF2D77B
:10005000120011501302F3CF01F0F4CF00F014029C
:10006000F350002612501302F3500020026EA6EF48
:1000700004F08E0E006E12C001F011C002F0036A8F
:10008000015209E102C001F0026A080E005E01524D
:1000900002E1006A08D0D89001BE04D002360136D1
:1000A0000006F9D7019E1200800ED8B21A1A1F6AF4
:1000B000206A16C01EF01A501E1A1550D8B4DCD093
:1000C0001D6E006E1950D8B4E0D01D5ED8B481D03A
:1000D0003DE31AC023F0238E1BC022F01CC021F088
:1000E000206AD89023322232213220321D2EF8D7B6
:1000F0001EAE03D01F80DDD01F901D901F88EA6ABE
:10010000180EE96EE9D01F981EBE0AD01DA013D0AC
:100110002332223221322032002AD8B4C5D00BD06B
:1001200023BE0CD0D8902036213622362336000646
:10013000D8B4BAD0F5D71F8C6BD01F9C16C01EF058
:1001400016AE02D0238EA9D0239EA7D019C01DF0D1
:1001500019C000F015501D5E16C023F0238E17C085
:1001600022F018C021F0206AD890233222322132A6
:1001700020321D2EF8D71EAE03D01F829AD01F92B8
:100180001D901F8AEA6A1C0EE96EA6D01F9A1EBE39
:100190000AD01DA013D02332223221322032002A6D
:1001A000D8B482D00BD023BE0CD0D89020362136C4
:1001B000223623360006D8B477D0F5D71F8E28D044
:1001C0001F9E1AC01EF01AAE02D0238E66D0239E48
:1001D00064D01AC023F0238E1BC022F01CC021F073
:1001E0001EAE04D0239E1F8464D01F94206A1D90ED
:1001F000EA6A180EE96E70D01EBE1CD016C01EF042
:100200001DA006D02332223221322032002A4CE0B7
:1002100020AE0BD0212A09E1222A07E1232A05E199
:10022000233222322132002A3FE01FBC86D71FBE74
:10023000C7D71CD0800E231A23AE04D03AD01AC0E0
:100240001EF00AD016C01EF0235206E1225204E12D
:10025000215202E1006A21D023BE08D0D890203676
:10026000213622362336002EF7D71ED01EAE02D0FE
:10027000238E13D0239E11D019C000F01AC023F092
:100280001BC022F01CC021F008D015C000F016C021
:1002900023F017C022F018C021F023C001F022C0C3
:1002A00002F021C003F034D0006A016A026A036AD6
:1002B0002FD0206A211E221E231E201E202A05E187
:1002C000212A03E1222A01E1232A1FB015D71FB2F8
:1002D00056D71FB48AD7B3D7EF50212605E3222A79
:1002E00003E1232AD8B41D80ED52EF50222603E308
:1002F000232AD8B41D80ED52EF50EFBE01D0800A02
:100300002326D8B01D801FB8FED61FBA3FD774D79A
:10031000CCEF04F01550D8B4A5D0216E1950D8B444
:10032000A1D0215E05E37F0E2126D8B09BD006D058
:10033000810E215ED8A096D0D8B494D021C000F010
:10034000016A026A036A206A16C01FF01F8E17C076
:100350001EF018C01DF0190E216E1C501D5E0DE21E
:10036000010E1E5E0AE21F5E08E2205E06E2202AFF
:100370001F2A1E2A1C501D2628D01B501E5E12E26A
:10038000010E1F5E0FE2205E0DE2202A1F2A1B5085
:100390001E261C501D2619E31E2A17E11F2A15E1EF
:1003A000202A13D01A5080091F5E0EE2010E205E33
:1003B0000BE2202A1A5080091F261B501E26E9E353
:1003C0001F2AE7E1202AE5D70380212E01D00BD098
:1003D000D8901D361E361F362036D890033602368A
:1003E00001362236BAD722A006D0D8900132023286
:1003F0000332223202D0000635E022BE1ED0D89051
:100400001D361E361F3620361C501D5E07E2010EBB
:100410001E5E04E21F5E02E2205E1AE31B501E5EB7
:1004200005E2010E1F5E02E2205E12E31A5080090F
:100430001F5E03E2010E205E0BE3032A09E1022A9C
:1004400007E1012A05E1002A0DE001320232033200
:1004500016C021F01A50211A21AE02D0018E06D00A
:10046000019E04D0006A016A026A036A12002250E7
:10047000D8B471D0006E2650D8B46DD0002604E3F5
:10048000810E002668E204D07F0E005E64E363E024
:1004900023C02AF027502A1A238E278E255029029E
:1004A000F4CF2CF024502802F4CF03F0F3CF2BF03C
:1004B0002902F3502C26F4502B22000E0322255043
:1004C0002802F3502C26F4502B22000E026A03223D
:1004D000022223502902F3502B26F4500322000E4F
:1004E000022223502802F3500326F4500222000E69
:1004F000016A012225502702F3502B26F4500322D3
:10050000000E0222012224502702F3500326F45049
:100510000222000E012223502702F3500226F4503B
:100520000122002A01BE05D02B36033602360136E1
:100530000006000E2BAE0AD0032A0222012201502F
:1005400005E1025003E1035001E1002A2ABE018EB9
:100550002AAE019E04D0006A016A026A036A120090
:100560008E0E006E1150005E12C002F013C001F03A
:10057000028E005209E0D890025202E1015204E0DA
:1005800002320132002EF7D712AE05D0011E021E34
:10059000012AD8B4022A02EF05F0949C8B9C080E25
:1005A000016E00D00000018E0ED0019E2232D8B024
:1005B0008B8CD8A08B9C018C06D0019C012EF6D789
:1005C00000D000008B8C840EE96EE92EFED700D09F
:1005D000000001BEEAD701BCF0D712000900F6CF37
:1005E00016F0F7CF17F0F5CF22F0D7DF16C0F6FFE1
:1005F00017C0F7FF152EF2D712001450016A135CD2
:1006000003E213C000F00CD0006A080E156E13361A
:1006100000361450005CD8B0006E0136152EF7D7A6
:100620001200015011C013F0640E146EE6DF00C01A
:1006300011F00150300E07E112A20CD012B60AD010
:1006400012B8200E03D0129612981280012601C013
:1006500022F0A3DF11C013F00A0E146ECEDF00C02B
:1006600011F00150300E06E112B608D012A006D0EB
:1006700012B8200E012601C022F08FDF300E1126A5
:1006800011C022F08ADF10EF05F02250B608226E6A
:10069000036A23C026F0238ED890233224322532D9
:1006A0000332023201320032222EF6D726AE0BD0B0
:1006B000001E011E021E031E002AD8B4012AD8B44F
:1006C000022AD8B4032AD3EF03F0D8B203D0EA6ADF
:1006D0002A0EE96E006A016A026A036A2A6A2B6AB4
:1006E0002C6A2D6A29502810271026102CE0200E85
:1006F0002E6ED89022362336243625362A362B36CF
:100700002C362D3629502D5C08E128502C5C05E153
:1007100027502B5C02E126502A5C0FE326502A5E0C
:100720002750D8A0273C2B5E2850D8A0283C2C5E10
:100730002950D8A0293C2D5ED880003601360236DB
:1007400003362E2ED6D72AC0EFFF2BC0ECFF2CC0CD
:10075000ECFF2DC0ECFF1200E9501A6E19501C6E10
:1007600019E018C025F017C024F016C023F015C0FA
:1007700022F0296A286A200E276E820E266E77DE06
:1007800003C018F002C017F001C016F000C015F049
:100790001C2EE7D718C025F017C024F016C023F090
:1007A00015C022F072D703C018F002C017F001C0C4
:1007B00016F000C015F018AE0DD01A061A8A151ED4
:1007C000161E171E181E152AD8B4162AD8B4172AB2
:1007D000D8B4182A3B0E216E9A0E206ECA0E1F6ED8
:1007E0001E6A0A0E1C6E1950D8B41A2AD882EA6AF8
:1007F000150EE96E18C025F017C024F016C023F0BE
:1008000015C022F021C029F020C028F01FC027F019
:100810001EC026F05ADF015000520FE119281C5C5F
:100820000CE01A500CE00F0B1C5C01E037E21ABE22
:1008300035D01ABC04D0200E2DD0200E1A161AAABC
:100840000CD01A9A1950D8A41A0600501A6E2D0E00
:10085000226EA3DE1A50006E1A6A19501C5C0AE15F
:1008600000501A6E2E0E226E98DE1A50006E200E68
:100870001A16000E300E1AAA0DD01A9A1950D8A4C2
:100880001A0600501A6E2D0E226E87DE1A50006E68
:100890001A6A300E002600C022F07FDED89221C0F6
:1008A00025F020C024F01FC023F01EC022F0296ACA
:1008B000286A276A0A0E266E08DF03C021F002C0EC
:1008C00020F001C01FF000C01EF01C2E8FD71200B8
:1008D000F86AD09EEA6AE96A949C8B8C640E0C6E6E
:1008E000C180C182C184C196C19CC28CC28EC18E9E
:1008F000C280C190C192C184C1960C5202E1640EC3
:100900000C6E000E016EC250C70B0110C26E0CC0FF
:1009100011F015EC00F0C284C2B4FED7C3CF04F0CE
:10092000C4CF05F00450065C04E10550075CD8B460
:1009300092D005C007F004C006F0126A3B0E116E9B
:1009400005C014F004C013F029EF00F002C012F04B
:10095000036A0230026E02323F0E021602C011F02C
:1009600003C012F039EC00F000C011F001C012F029
:1009700002C013F003C014F0D89203C018F002C0F4
:1009800017F001C016F000C015F01C6A1B6A1A6A45
:100990007F0E196E54EF00F003C00BF002C00AF096
:1009A00001C009F000C008F0186A176A166A7F0EC5
:1009B000156E0BC01CF00AC01BF009C01AF008C06D
:1009C00019F0A8DC00C011F001C012F002C013F051
:1009D00003C014F003C025F002C024F001C023F0CE
:1009E00000C022F0296A286A7A0E276E870E266ECA
:1009F0003EDD03C014F002C013F001C012F000C0CD
:100A000011F0AED501C00CF0040EF66E000EF76EBC
:100A1000050E156EE3DD0CC011F01B0E126E01D633
:100A20000B0EF66E000EF76E090E156ED7DD890EF1
:100A3000E96E0BC018F00AC017F009C016F008C024
:100A400015F0020E196E88DE160EF66E000EF76EA9
:100A5000040E156EC3DD180E016EC250C70B0110D7
:100A6000C26E0CC011F015EC00F0C284C2B4FED707
:100A7000C3CF04F0C4CF05F005C007F004C006F0F2
:100A800005C012F004C011F039EC00F0256A246AA8
:100A9000200E236E810E226E03C029F002C028F0C2
:100AA00001C027F000C026F0E2DC00C011F001C058
:100AB00012F002C013F003C014F003C018F002C01B
:100AC00017F001C016F000C015F01C6A1B6A1A6A04
:100AD000890E196E1FDC00C011F001C012F002C0B7
:100AE00013F003C014F01C0EF66E000EF76E080E25
:100AF000156E74DD890EE96E14C018F013C017F07E
:100B000012C016F011C015F0020E196E25DE0A0E85
:100B1000226E43DD0D0E226E40DDF3D6000E016E17
:020B20000300D0
:020000040030CA
:0E00000000220E0E000181000FC00FE00F4025
:00000001FF
;PIC18F452
;CRC=E370  CREATED="10-set-14 09:38"
