:1000000038EF03F0EA6A110EE96EEF500EE0050ECC
:10001000016E006A002EFED7012EFBD72E0E006E59
:10002000002EFED700D0EF2EF2D71200115013028F
:10003000F3CF01F0F4CF00F01402F3500026125079
:100040001302F3500020026E73EF03F08E0E006E69
:1000500012C001F011C002F0036A015209E102C0AE
:1000600001F0026A080E005E015202E1006A08D047
:10007000D89001BE04D0023601360006F9D7019EA1
:1000800080EF03F0800ED8B21A1A1F6A206A16C0D9
:100090001EF01A501E1A1550D8B4DCD01D6E006E1A
:1000A0001950D8B4E0D01D5ED8B481D03DE31AC059
:1000B00023F0238E1BC022F01CC021F0206AD890B0
:1000C00023322232213220321D2EF8D71EAE03D029
:1000D0001F80DDD01F901D901F88EA6A180EE96E00
:1000E000E9D01F981EBE0AD01DA013D023322232A1
:1000F00021322032002AD8B4C5D00BD023BE0CD078
:10010000D89020362136223623360006D8B4BAD00D
:10011000F5D71F8C6BD01F9C16C01EF016AE02D0F8
:10012000238EA9D0239EA7D019C01DF019C000F0BE
:1001300015501D5E16C023F0238E17C022F018C084
:1001400021F0206AD89023322232213220321D2E13
:10015000F8D71EAE03D01F829AD01F921D901F8A1F
:10016000EA6A1C0EE96EA6D01F9A1EBE0AD01DA018
:1001700013D02332223221322032002AD8B482D046
:100180000BD023BE0CD0D890203621362236233611
:100190000006D8B477D0F5D71F8E28D01F9E1AC07E
:1001A0001EF01AAE02D0238E66D0239E64D01AC0F1
:1001B00023F0238E1BC022F01CC021F01EAE04D001
:1001C000239E1F8464D01F94206A1D90EA6A180E33
:1001D000E96E70D01EBE1CD016C01EF01DA006D049
:1001E0002332223221322032002A4CE020AE0BD0C2
:1001F000212A09E1222A07E1232A05E123322232BA
:100200002132002A3FE01FBC86D71FBEC7D71CD0B3
:10021000800E231A23AE04D03AD01AC01EF00AD0A2
:1002200016C01EF0235206E1225204E1215202E1DF
:10023000006A21D023BE08D0D8902036213622363D
:100240002336002EF7D71ED01EAE02D0238E13D039
:10025000239E11D019C000F01AC023F01BC022F059
:100260001CC021F008D015C000F016C023F017C044
:1002700022F018C021F023C001F022C002F021C0FA
:1002800003F034D0006A016A026A036A2FD0206A40
:10029000211E221E231E201E202A05E1212A03E101
:1002A000222A01E1232A1FB015D71FB256D71FB447
:1002B0008AD7B3D7EF50212605E3222A03E1232A68
:1002C000D8B41D80ED52EF50222603E3232AD8B480
:1002D0001D80ED52EF50EFBE01D0800A2326D8B02A
:1002E0001D801FB8FED61FBA3FD774D797EF03F013
:1002F0001150D8B4A5D01D6E1550D8B4A1D01D5E34
:1003000005E37F0E1D26D8B09BD006D0810E1D5E62
:10031000D8A096D0D8B494D01DC000F0016A026A6B
:10032000036A1C6A12C01BF01B8E13C01AF014C0A3
:1003300019F0190E1D6E1850195E0DE2010E1A5EAD
:100340000AE21B5E08E21C5E06E21C2A1B2A1A2A2D
:100350001850192628D017501A5E12E2010E1B5EA3
:100360000FE21C5E0DE21C2A1B2A17501A26185099
:10037000192619E31A2A17E11B2A15E11C2A13D0A2
:10038000165080091B5E0EE2010E1C5E0BE21C2A59
:10039000165080091B2617501A26E9E31B2AE7E1AD
:1003A0001C2AE5D703801D2E01D00BD0D89019361A
:1003B0001A361B361C36D8900336023601361E36E6
:1003C000BAD71EA006D0D8900132023203321E32B4
:1003D00002D0000635E01EBE1ED0D89019361A365F
:1003E0001B361C361850195E07E2010E1A5E04E235
:1003F0001B5E02E21C5E1AE317501A5E05E2010E54
:100400001B5E02E21C5E12E3165080091B5E03E2D3
:10041000010E1C5E0BE3032A09E1022A07E1012A0F
:1004200005E1002A0DE001320232033212C01DF054
:1004300016501D1A1DAE02D0018E06D0019E04D0AA
:10044000006A016A026A036AADEF03F01550D8B47E
:1004500071D0006E1950D8B46DD0002604E3810E1F
:10046000002668E204D07F0E005E64E363E016C0FD
:100470001DF01A501D1A168E1A8E18501C02F4CF39
:100480001FF017501B02F4CF03F0F3CF1EF01C0235
:10049000F3501F26F4501E22000E032218501B0298
:1004A000F3501F26F4501E22000E026A032202227D
:1004B00016501C02F3501E26F4500322000E022296
:1004C00016501B02F3500326F4500222000E016A5C
:1004D000012218501A02F3501E26F4500322000E77
:1004E0000222012217501A02F3500326F45002226E
:1004F000000E012216501A02F3500226F450012277
:10050000002A01BE05D01E3603360236013600062B
:10051000000E1EAE0AD0032A02220122015005E17C
:10052000025003E1035001E1002A1DBE018E1DAE01
:10053000019E04D0006A016A026A036AC4EF03F0F4
:100540008E0E006E1150005E12C002F013C001F05A
:10055000028E005209E0D890025202E1015204E0FA
:1005600002320132002EF7D712AE05D0011E021E54
:10057000012AD8B4022ACDEF03F0949C8B9C080E7C
:10058000016E00D00000018E0ED0019E1C32D8B04A
:100590008B8CD8A08B9C018C06D0019C012EF6D7A9
:1005A00000D000008B8C840EE96EE92EFED700D0BF
:1005B000000001BEEAD701BCF0D71200EACF1BF061
:1005C000E9CF1AF01438F009166E1626E20F176EEE
:1005D000320F196E14500F0B172617261926E90F24
:1005E000186E1826182613380F0B182619261836D9
:1005F0001936191E193613500F0B19261636070E09
:10060000156E0A0E18061926FDE317061826FDE3D7
:1006100016061726FDE315061626FDE3EA6A150EF3
:10062000E96E070E1A141A9CE926190EE95CD8B473
:100630001A8CEF50006E08E11ABC06D01AB813D01D
:100640001AB602D0200E03D01A861A98300E002651
:10065000EACF14F0E9CF13F000C01CF08EDF14C015
:10066000EAFF13C0E9FFEE501AACDFD7E8EF03F062
:10067000F86AD09EEA6AE96A949C8B8C640E0C6ED0
:10068000C180C182C184C196C19CC28CC28EC18E00
:10069000C280C190C192C184C1960C5202E1640E25
:1006A0000C6E000E016EC250C70B0110C26E0CC062
:1006B00011F0A8DCC284C2B4FED7C3CF04F0C4CF0B
:1006C00005F00450065C03E10550075C68E005C0D6
:1006D00007F004C006F0126A3B0E116E05C014F05C
:1006E00004C013F0A3D402C012F0036A0230026EF9
:1006F00002323F0E021602C011F003C012F0A6D45F
:1007000000C011F001C012F002C013F003C014F0D9
:10071000D89203C018F002C017F001C016F000C054
:1007200015F01C6A1B6A1A6A7F0E196EABD403C0DF
:100730000BF002C00AF001C009F000C008F0146A12
:10074000136A126A7F0E116E0BC018F00AC017F000
:1007500009C016F008C015F0CBD500C011F001C0DB
:1007600012F002C013F003C014F003C018F002C06E
:1007700017F001C016F000C015F01C6A1B6A7A0E53
:100780001A6E870E196E62D603C014F002C013F001
:1007900001C012F000C011F0D3D601C00CF0180E49
:1007A000016EC250C70B0110C26E0CC011F02ADCE2
:1007B000C284C2B4FED7C4CF03F0C3CF11F0C4CFFC
:1007C00012F0100EE96EC4CF14F0C3CF13F0F6D6BA
:1007D0000A0E1C6ED2DE0D0E1C6ECFDE62D7000E2E
:0407E000016E0300A3
:020000040030CA
:0E00000000220E0E000181000FC00FE00F4025
:00000001FF
;PIC18F452
;CRC=00DF  CREATED="10-set-14 09:47"
